:020000042000DA
:10000000404F0020ED000020610D0020610D002018
:10001000610D0020610D0020610D00200000000036
:10002000000000000000000000000000610D002042
:10003000610D002000000000610D0020D50F0020A0
:10004000610D0020610D0020610D0020610D002078
:10005000610D0020610D0020610D0020610D002068
:10006000610D0020610D0020610D0020610D002058
:10007000610D0020610D0020610D0020610D002048
:10008000610D0020610D0020610D0020610D002038
:10009000610D0020610D0020610D0020610D002028
:1000A000610D0020610D0020610D0020610D002018
:1000B000610D0020610D0020610D0020610D002008
:1000C000610D0020610D0020610D0020610D0020F8
:1000D000610D0020610D0020610D0020610D0020E8
:1000E000610D0020610D0020610D0020DFF81CD0A3
:1000F000074B4FF0A531074A196003F104039342FF
:10010000FAD10020044B184700BF0000404F0020E8
:10011000404C0020005000205510002061010020BC
:1001200091090020F8B500BFF8BC08BC9E46704796
:10013000F8B500BFF8BC08BC9E46704710B5054C2A
:10014000237833B9044B13B10448AFF30080012383
:10015000237010BD2C110020000000002811002089
:1001600008B5034B1BB103490348AFF3008008BD3A
:1001700000000000301100202811002080B586B05A
:1001800000AF1C4BFB601B4B7B611B4BBB607A6958
:10019000BB689A420AD07B697B6010220021786894
:1001A00000F076FF7B6910337B61F0E70023FB747E
:1001B000FB7C002B15D1FB7C9B00104A13443B6059
:1001C0003B681B68FA7C83F831203B681B681B681E
:1001D0001B683A68126810469847FB7C0133FB7431
:1001E000E6E7074B00225A7000F078FB00BF183793
:1001F000BD4680BD204C0020404C0020D410002083
:10020000004C002080B483B000AF786039607B6818
:100210001A683B681B689A4201D23B6800E07B6821
:1002200018460C37BD4680BC704780B483B000AF21
:10023000786039603B681A687B681B689A4201D213
:100240003B6800E07B6818460C37BD4680BC7047B1
:10025000B0B594B000AF00F02BFB0346002B00F0CC
:100260003481002387F84F308F4B5B78DBB2012B52
:100270000CBF01230023DBB2002B00F0CE808A4BA1
:100280009B78DBB29B00894A13447B637B6B1B68C2
:10029000012283F830207B6B1B680433824A1C46A2
:1002A00015460FCD20606160A260E3600FCD206134
:1002B0006161A261E3617B6B19687B4BDB78DAB229
:1002C0007B6B1C683B46184600F058FA04F1280383
:1002D0003A4692E8030083E8030007F10C0304F1B7
:1002E000280292E8030083E80300FB68002B06D194
:1002F0003B6903F00103002B01D1012300E000233F
:10030000002B04D07B6B1B687E225A717CE07B6BD8
:100310001B6800229A607B6B1B68FF2283F83320E6
:100320007B6B1B68002283F832207B6B1B68FF22EB
:1003300083F835207B6B1B68002283F834207B6BAD
:100340001B68012283F824207B6B1B68DB6A03F0A7
:100350000103002B0DD07B6B1B687A6B1268D26A8D
:10036000521013441B687A6B1268926A13441B681C
:1003700002E07B6B1B689B6A7A6B1268796B096879
:10038000C96A49100A44104698477B6B1B685B7921
:10039000022B29D101237B617B6B1B681B6ABB612C
:1003A00007F1180319464248FFF73FFF024607F1DD
:1003B000140311461846FFF725FF03461A687B6BA6
:1003C0001B68D2B283F824207B6B1B680433364A47
:1003D00014461D4628686968AA68EB680FC4286936
:1003E0006969AA69EB690FC47B6B1B685B793F2B5A
:1003F0000AD87B6B1B689B68002B01D07F2200E032
:1004000000227B6B1B685A71274B02225A7000F046
:1004100065FA012387F84F304EE0234B5B78DBB25F
:10042000002B0CBF01230023DBB2002B44D01F4B59
:100430003B641E4BBB641F4BFB63BA6CFB6B9A4265
:100440003AD0BB6CBB63BB6B1B6893F83030002B9E
:1004500025D0BB6B1B685B793F2B20D9BB6B1B681E
:10046000002283F83020BB6B1B6800229A620022B6
:10047000DA62BB6B1B6804330B4A14461D462868BE
:100480006968AA68EB680FC428696969AA69EB6999
:100490000FC400F023FA012387F84F300CE0BB6C47
:1004A0000433BB64C9E700BF004C0020D410002017
:1004B000D0100020D810002097F84F3083F00103AF
:1004C000DBB2002B01D000F009FA374B1B689847CC
:1004D0003863364BFB62354B7B64354BBB627A6CC1
:1004E000BB6A9A425AD07B6C7B627B6A1B6893F82A
:1004F000303083F00103DBB2002B49D17B6A1B68EB
:100500005B793F2B44D8284B1B68984738627B6A3D
:100510001B68DB6A03F00103002B0DD07B6A1B68AC
:100520007A6A1268D26A521013441B687A6A126897
:10053000926A13441B6802E07B6A1B689B6A7A6AB2
:100540001268796A0968C96A49100A4410469847CE
:100550007B6A1B685B793F2B08D87B6A1B689B68AA
:10056000002B03D07B6A1B687F225A710E4B1B68DD
:10057000984702463B6AD31AFB610B4B1B689847AE
:1005800002463B6BD31AFB61FB69322B05D800E0B6
:1005900000BF7B6C04337B64A1E700BF00F068F808
:1005A00000BF5037BD46B0BD28110020D410002038
:1005B000D810002080B483B000AF786000BF0C3743
:1005C000BD4680BC704780B485B000AFF860B960AC
:1005D0001346FB71FB6800221A60FB6800225A6018
:1005E000F8681437BD4680BC704780B582B000AF54
:1005F0007860786800F096F800BF0837BD4680BD87
:1006000080B582B000AF7860786800F08BF800BFEA
:100610000837BD4680BD80B582B000AF786078688D
:1006200000F080F800BF0837BD4680BD80B582B0BD
:1006300000AF7860786800F075F800BF0837BD46F5
:1006400080BD80B582B000AF7860786800F06AF84D
:1006500000BF0837BD4680BD80B582B000AF78606E
:10066000786800F05FF800BF0837BD4680BD000025
:1006700080B582B000AF0023FB71FB79012B48D815
:10068000FB791B01254A13443B603B681B78DBB2B6
:10069000802B14BF01230023DBB2002B34D13B6835
:1006A0009B78DBB2002B14BF01230023DBB2002BAD
:1006B00003D03B6800225A7016E03B685B78DBB2DF
:1006C000002B0BD03B689B78154B93F8303083F0B0
:1006D0000103DBB2002B01D0012300E00023002B3B
:1006E00002D03B6800225A703B685B78DBB2002B7B
:1006F0000CBF01230023DBB2002B06D000F0CCF8A6
:100700003B6800221A7000E000BFFB790133FB71E7
:10071000B3E700BF0837BD4680BD00BF204C0020B6
:100720004C11002080B483B000AF78607B687E22DB
:100730005A7100BF0C37BD4680BC704780B483B08F
:1007400000AF78607B684FF440329A60084A7B685B
:100750001A62084A7B68DA617B68074A9A617B689B
:1007600040225A7100BF0C37BD4680BC704700BFA5
:10077000204C0020004800200001000280B584B019
:1007800000AFF860B9601346FB71FB797F2B36D060
:100790007F2B65DC502B5CD0502B61DC112B2BDCCC
:1007A000002B5DDB112B5BD801A252F823F000BFB8
:1007B0000D0800201B0800206108002061080020AF
:1007C0006108002061080020610800206108002005
:1007D00061080020610800206108002061080020F5
:1007E00061080020610800206108002061080020E5
:1007F0002908002037080020402B23D030E0FB6878
:100800001E4A1A60FB6800225A6032E0FB681C4AEC
:1008100092E8030083E803002BE0FB68194A92E8A2
:10082000030083E8030024E0FB68174A92E8030012
:1008300083E803001DE0FB68144A92E8030083E8A4
:10084000030016E0FB68124A92E8030083E8030005
:100850000FE0FB680F4A92E8030083E8030008E01A
:10086000BB681B6804331B68F868FA79B968984755
:1008700000BFF8681037BD4680BD00BF3D070020AF
:10088000A0100020A8100020B0100020B8100020F8
:10089000C0100020C810002080B400AFBFF35F8FED
:1008A000BFF34F8FBFF36F8F00BFBD4680BC704753
:1008B00080B400AF084B1B78DBB2802B0CBF012348
:1008C0000023DBB2002B01D0012300E000231846F7
:1008D000BD4680BC704700BF004C002080B500AF13
:1008E000FFF7DAFF024B00221A7000BF80BD00BF85
:1008F000004C002080B400AF024B1B681846BD4678
:1009000080BC70474811002080B483B000AF78608D
:10091000044A7B681A607B6818460C37BD4680BC69
:10092000704700BFE010002080B582B000AF786053
:100930007B681846FFF7E8FF034A7B681A607B680C
:1009400018460837BD4680BD0811002080B500AFAD
:10095000FFF714FC00BF80BD80B500AFFFF778FC47
:1009600000BF80BD80B582B000AF786039607B6821
:10097000012B07D13B684FF6FF72934202D1034827
:10098000FFF7D2FF00BF0837BD4680BD4C110020E5
:1009900080B500AF4FF6FF710120FFF7E3FF80BD88
:1009A00080B500AF72B600BF00F00CFBFFF7CEFFC2
:1009B00062B600BFFFF7D0FFFCE780B400AF00BF16
:1009C000BD4680BC7047000080B588B000AFF860BD
:1009D000B9607A603B60FB6893F83530FF2B76D1C5
:1009E0000023FB77FB7F012B62D8FB7F1B014A4A68
:1009F0001344BB61BB691B78DBB2802B14BF01239E
:100A00000023DBB2002B4ED1FFF746FFBB695B78BA
:100A1000DBB2022B13D1BB699B78DAB2FB6893F887
:100A200031309A420BD1BB69DB78DBB203F07F0334
:100A3000FA6892F83420934201D1012300E00023A8
:100A4000002B31D0FB68FA7F83F83520BB691A7917
:100A500000221A715A7900225A719A7900229A71E9
:100A6000DA790022DA71BB69DB78DBB25BB2DBB228
:100A7000DB09DBB2002B06D0BB69DB78DAB2FB689E
:100A800083F8342014E0FB6893F8343001335A4281
:100A900003F07F0302F07F0258BF5342DAB2FB68D3
:100AA00083F8342004E000BFFB7F0133FB7799E734
:100AB000FB6893F83530FF2B09D1BB6800221A6020
:100AC0007B6800221A603B6800221A6020E0FB6805
:100AD00093F835301B01104A13447B61FB6893F88F
:100AE00035301A467B695B68120213440B4A1A447C
:100AF000BB681A607B699A687B695B681A447B688B
:100B00001A607B69DA687B695B68D21A3B681A6095
:100B10002037BD4680BD00BF204C0020004800208B
:100B200080B586B000AFF860B9607A60FB6893F872
:100B30003530FF2B08D1FB6801229A60FB688322C5
:100B40005A71FB689B6841E0FB6893F835301B01E4
:100B5000204A13447B617B695A68BB681A447B69ED
:100B60005A607B695A687B69DB689A428CBF0123B3
:100B70000023DBB2002B08D0FB6802229A60FB68DE
:100B800083225A71FB689B6820E07B695A687B6905
:100B9000DB689A420CBF01230023DBB2002B14D088
:100BA000FB6893F834305BB2DBB2DB09DAB27B6806
:100BB0001A707B6900225A70FFF76EFE7B69002273
:100BC0001A70FB68FF2283F8352000231846183777
:100BD000BD4680BD204C002080B489B000AFF860D5
:100BE000B9607A607B68DB43BB61BB685A1EBA6040
:100BF000002B14BF01230023DBB2002B21D0FB68A4
:100C00001B781A46BB695340BB61FB680133FB602C
:100C10000723FB7797F91F30002BE6DBBB6903F056
:100C200001035B427B61BB695A087969084B0B4041
:100C30005340BB6197F91F30DBB2013BDBB2FB775E
:100C4000E8E7BB69DB4318462437BD4680BC7047E4
:100C50002083B8ED80B588B000AF78600023FB73C7
:100C60007B685B79012B05D13C4B00221A6000F0B8
:100C70009BF86FE0786807F1100307F1140207F1A1
:100C80001801FFF7A1FEBB69002B62D07B691846F3
:100C900000F00EF9F861FB695A1E7B691340002BC6
:100CA00008D000F087F87B6801229A607B684122B7
:100CB0005A714FE03B69FA699A4208D900F07AF814
:100CC0007B6802229A607B6841225A7142E07B690C
:100CD000BA691146184600F0F5F802467B689A603A
:100CE0007B689B68002B14BF01230023DBB2002B21
:100CF00002D000F05FF82DE07B6807F10F02F96980
:100D00001846FFF70DFF0346002B14BF01230023F5
:100D1000DBB2002B02D000F04DF81BE000F04AF8E7
:100D20007B6918460D4B1B681A46F969FFF754FF9B
:100D300003460A4A1360FB7B002B07D0074B1A6857
:100D40007B681A627B6840225A7103E000F02CF83D
:100D500000E000BF2037BD4680BD00BF84110020E9
:100D600080B483B000AF044B5B68C3F308037B60BF
:100D70007B6800BEFEE700BF00ED00E080B483B0FA
:100D800000AF7860054B064A5A60044B054A5A602A
:100D900000BF0C37BD4680BC704700BF002002403A
:100DA00023016745AB89EFCD80B400AF00BFBD46DE
:100DB00080BC704780B400AF00BFBD4680BC7047A8
:100DC00080B400AF064BDB6803F00103002B14BFB7
:100DD00001230023DBB21846BD4680BC704700BF2C
:100DE0000020024080B483B000AF00237B60134B2F
:100DF000DB6803F00403002B14BF01230023DBB2E4
:100E0000002B02D001237B600CE00C4BDB6803F06D
:100E10001003002B14BF01230023DBB2002B01D0F1
:100E200002237B60054BDB68044A43F01403D36064
:100E30007B6818460C37BD4680BC704700200240D6
:100E400080B582B000AF78607B685B79012B0CD1F4
:100E5000164B1B69154A43F004031361134B1B69BE
:100E6000124A43F0400313611CE0FFF7A9FF034659
:100E7000002B16D1FFF7B6FF02467B689A600B4B3A
:100E80001B690A4A23F0040313617B689B68002BEB
:100E900003D07B687F225A7104E07B6840225A713C
:100EA00000E000BF0837BD4680BD00BF0020024003
:100EB00080B483B000AF7860022318460C37BD467B
:100EC00080BC704780B584B000AF786039600F4B4C
:100ED0001B690E4A43F0010313617B683A6812886C
:100EE0001A80FFF76DFF0346002B00D0F9E7FFF7EC
:100EF00079FFF860054B1B69044A23F00103136175
:100F0000FB6818461037BD4680BD00BF0020024078
:100F100080B400AF044B1B680133034A136000BF69
:100F2000BD4680BC704700BF4811002080B483B02C
:100F300000AF03463960FB7197F90730002B0ADBDD
:100F40003B68DAB20C4997F907301201D2B20B4470
:100F500083F800230AE03B68DAB20849FB7903F022
:100F60000F03043B1201D2B20B441A7600BF0C37B8
:100F7000BD4680BC704700BF00E100E000ED00E02E
:100F800080B582B000AF78607B68013BB3F1807FB1
:100F900001D301230FE00A4A7B68013B53600F2114
:100FA0004FF0FF30FFF7C2FF054B00229A60044B61
:100FB00007221A60002318460837BD4680BD00BFCF
:100FC00010E000E080B500AF4FF4FA50FFF7D8FF13
:100FD00000BF80BD80B500AFFFF79AFF00BF80BDA6
:100FE00080B582B000AF174A174BD31A9B103B60F5
:100FF00000237B6007E0144A7B6852F8233098474F
:101000007B6801337B607A683B689A42F3D3FFF7D1
:1010100089F80E4A0E4BD31A9B103B6000237B606D
:1010200007E00B4A7B6852F8233098477B6801330E
:101030007B607A683B689A42F3D300BF00BF0837F1
:10104000BD4680BD1C0100201C01002024010020A1
:101050001C01002080B500AF094B0A4A9A60FFF7D7
:10106000ACFC094A094BD31A1A460021074800F084
:101070000FF8FFF7B5FFFFF793FC00BF80BD00BF7F
:1010800000ED00E000000020881100202C1100205D
:1010900003460244934200D1704703F8011BF9E76D
:1010A00008000000010000000C000000010000002A
:1010B000100000000100000014000000010000000A
:1010C00018000000010000001C00000001000000EA
:1010D000020000004C110020000000000000000091
:1010E000B5050020C7050020EB0500200106002003
:1010F000170600202D060020430600205906002078
:1011000000000000000000007D0D0020C705002049
:10111000410E002001060020550C00202D06002065
:081120004306002059060020DF
:04112800F5080020A6
:04000005200000EDEA
:00000001FF
