:020000042000DA
:10000000404F0020ED0000200111002001110020D0
:10001000011100200111002001110020000000004A
:10002000000000000000000000000000011100209E
:10003000011100200000000001110020D51A00204D
:1000400001110020011100200111002001110020E8
:1000500001110020011100200111002001110020D8
:1000600001110020011100200111002001110020C8
:1000700001110020011100200111002001110020B8
:1000800001110020011100200111002001110020A8
:100090000111002001110020011100200111002098
:1000A0000111002001110020011100200111002088
:1000B0000111002001110020011100200111002078
:1000C0000111002001110020011100200111002068
:1000D000011100200111002001110020D90B002086
:1000E000011100200111002001110020DFF81CD0B7
:1000F000074B4FF0A531074A196003F104039342FF
:10010000FAD10020044B184700BF0000404F0020E8
:10011000404C002000500020C51800205D01002048
:10012000F8B500BFF8BC08BC9E467047F8B500BFE4
:10013000F8BC08BC9E46704710B5054C237833B90F
:10014000044B13B10448AFF300800123237010BDAA
:10015000D023002000000000D822002008B5034B67
:100160001BB103490348AFF3008008BD0000000045
:10017000D4230020D822002080B483B000AF786060
:1001800039603B6893F900207B681A7000BF0C3718
:10019000BD4680BC704790B587B000AF07F108043A
:1001A00084E803007A603B603B685C0007F1080369
:1001B000184600F01DFA03469C428CBF0123002321
:1001C000DBB2002B01D000234EE000237B61002333
:1001D0007B613B685B007A699A4244D20023FB74DE
:1001E0000023BB7407F108037969184600F0BAFAD6
:1001F000034693F9003007F113021146184600F048
:1002000023F9034683F00103DBB2002B01D0002366
:100210002AE07B695A1C07F108031146184600F0D2
:10022000A1FA034693F9003007F11202114618466D
:1002300000F00AF9034683F00103DBB2002B01D082
:10024000002311E0FB7C1B015AB2BB7C5BB2134361
:100250005BB2DAB27B681A707B6801337B607B69C2
:1002600002337B61B5E7012318461C37BD4690BDBC
:1002700080B582B000AF78600B46FB7097F9033011
:100280001946786800F0B2FA7B6818460837BD4610
:1002900080BD000090B58DB000AFF860B9607A60A5
:1002A000FB702D4B07F114040FCB84E80F00FB68A3
:1002B0007B62FB78002B25D0BB68013BFB62FB6AAD
:1002C000002B45DBFB6A7A6A13441B781B09DBB2FF
:1002D00030333B4413F91C3C19467868FFF7C8FFDC
:1002E000FB6A7A6A13441B7803F00F0330333B44F4
:1002F00013F91C3C19467868FFF7BAFFFB6A013B0B
:10030000FB62DCE70023BB62BA6ABB689A421FD279
:100310007A6ABB6A13441B781B09DBB230333B4457
:1003200013F91C3C19467868FFF7A2FF7A6ABB6A8A
:1003300013441B7803F00F0330333B4413F91C3C88
:1003400019467868FFF794FFBB6A0133BB62DBE7AD
:1003500000BF3437BD4690BD5C1B002080B58AB01D
:1003600000AFF860B9601346FB71002387F82730AF
:10037000FB68002B06DA2D21B868FFF779FFFB68D0
:100380005B42FB60FB79002B02D0FB790133FB71F0
:10039000FB68002B06D197F82730002B02D0FB79A1
:1003A000002B34D0FB79002B0FD0FB79013BFB7184
:1003B000FB79002B09D197F827305A1C87F82720A2
:1003C00028333B442E2203F8182CFA681D4B83FB7C
:1003D00002139910D317C91A0B469B000B445B00FC
:1003E000D11ACBB23033DBB25AB297F82730591C4E
:1003F00087F8271028333B4403F8182CFB68114A70
:1004000082FB03129210DB17D31AFB60C0E797F848
:1004100027305A1E87F82720002B14BF0123002302
:10042000DBB2002B0AD097F8273028333B4413F96E
:10043000183C1946B868FFF71BFFE8E700BF2837EC
:10044000BD4680BD6766666680B483B000AF034674
:100450003960FB7197F90730303B362B00F2C280D0
:1004600001A252F823F000BF450500204F050020EF
:1004700059050020630500206D0500207705002048
:10048000810500208B050020950500209F05002098
:10049000E5050020E5050020E5050020E505002034
:1004A000E5050020E5050020E5050020A905002060
:1004B000B3050020BD050020C7050020D1050020A0
:1004C000DB050020E5050020E5050020E50500200E
:1004D000E5050020E5050020E5050020E5050020F4
:1004E000E5050020E5050020E5050020E5050020E4
:1004F000E5050020E5050020E5050020E5050020D4
:10050000E5050020E5050020E5050020E5050020C3
:10051000E5050020E5050020E5050020E5050020B3
:10052000E5050020E5050020E5050020A9050020DF
:10053000B3050020BD050020C7050020D10500201F
:10054000DB0500203B6800221A7001234BE03B686A
:1005500001221A70012346E03B6802221A7001232F
:1005600041E03B6803221A7001233CE03B6804220F
:100570001A70012337E03B6805221A70012332E02C
:100580003B6806221A7001232DE03B6807221A708F
:10059000012328E03B6808221A70012323E03B680E
:1005A00009221A7001231EE03B680A221A700123F7
:1005B00019E03B680B221A70012314E03B680C22FF
:1005C0001A7001230FE03B680D221A7001230AE024
:1005D0003B680E221A70012305E03B680F221A7057
:1005E000012300E0002318460C37BD4680BC70474D
:1005F00080B483B000AF78607B681B6818460C3706
:10060000BD4680BC704780B483B000AF78607B6823
:100610005B6818460C37BD4680BC704780B588B013
:1006200000AF07F1080383E803007A600023FB773B
:100630000023BB7707F108031846FFF7D9FFB8611D
:100640007B6800221A6007F108031846FFF7DBFFFA
:100650007861BB69002B01D100237FE07B6993F9AE
:100660000030302B11D0302B21DC002B02D02D2B71
:1006700002D01CE0002371E00123BB777B690133CA
:100680007B61BB69013BBB6114E0BB69012B10D9E5
:100690007B69013393F90030782B0AD10123FB7772
:1006A0007B6902337B61BB69023BBB6101E000BF38
:1006B00000E000BFBB69002B09D07B6993F90030D3
:1006C000DBB2FB74FB7C002B01D0012300E0002394
:1006D000002B3AD0FB7F002B17D0FB7C5BB207F1DD
:1006E000130211461846FFF7AFFE034683F00103DD
:1006F000DBB2002B01D0002330E07B681B681B01BC
:10070000FA7C1A437B681A6018E0FB7C2F2B01D817
:10071000002323E0FB7C303BDBB2FB74FB7C092B2A
:1007200001D900231AE07B681A6813469B00134422
:100730005B001A46FB7C1A447B681A607B690133B4
:100740007B61BB69013BBB61B4E7BB7F002B04D07D
:100750007B681B685A427B681A6001231846203761
:10076000BD4680BD80B483B000AF786039607B68DF
:100770005A683B68134418460C37BD4680BC704726
:1007800080B582B000AF78607B68184600F062F8F0
:10079000034618460837BD4680BD80B483B000AF1D
:1007A00078604FF4006318460C37BD4680BC704734
:1007B00080B483B000AF786039603B689AB27B68E0
:1007C0001A807B681B8818460C37BD4680BC704772
:1007D00080B582B000AF78607B68184600F05BF8A7
:1007E0007B6818460837BD4680BD000080B584B0E0
:1007F00000AF78600B46FB707868FFF7C1FFF860C8
:100800007868FFF7CAFF0246FB6893422CBF0123BA
:100810000023DBB2002B02D00D4800F026F87868E8
:1008200000F02CF80246FB681344FA1C11461846E7
:10083000FFF7A2FC7A68FB68013319461046FFF700
:10084000B7FF7868FFF7C4FF00BF1037BD4680BD13
:100850006C1B002080B483B000AF78607B681B887D
:1008600018460C37BD4680BC704780B483B000AFDB
:10087000786000BF0C37BD4680BC704780B582B041
:1008800000AF78607B68184600F01BF803461846F6
:100890000837BD4680BD80B584B000AF78607B6806
:1008A0001B881A467B68134402330022FA7307F14F
:1008B0000F0211461846FFF75FFC00BF1037BD4618
:1008C00080BD80B483B000AF78607B680233184687
:1008D0000C37BD4680BC704780B483B000AF7860F1
:1008E00039607B683A6892E8030083E8030078681F
:1008F0000C37BD4680BC704782B0B0B58EB000AF3B
:10090000F860B9607A60FB644FF0FF337B630023CB
:100910003B633A6B7B689A4273DA3B6BBA6802FBC3
:1009200003F3FA681A4407F1140311461846FFF757
:10093000D3FF07F11403BB620023FB61B86AFFF722
:1009400057FE044607F14C031846FFF751FE0346D5
:10095000E31A01333B6207F1200207F11C03114641
:10096000184600F075F803461B687B620023FB62A3
:10097000FA6A7B6A9A4240D2F96AB86AFFF7F2FED5
:10098000044607F14C031846FFF73DFE054607F104
:100990004C031846FFF72CFE03461A46294620460C
:1009A00001F0BAF80346002B0CBF01230023DBB291
:1009B000002B1ED0B86AFFF71BFE044607F14C035C
:1009C0001846FFF715FE03469C420CBF0123002387
:1009D000DBB2002B01D03B6B14E07B6B002B06DB02
:1009E0007A6B3B6B9A4202D04FF0FF330AE03B6BCD
:1009F0007B63FB6A0133FB62BAE73B6B01333B630A
:100A000087E77B6B18463837BD46BDE8B04002B07B
:100A10007047000080B584B000AF0B4BBB600A4B41
:100A2000FB600A4B7B60FA687B689A4208D0FB68DF
:100A30003B603B689B689847FB682433FB60F2E7A8
:100A400000BF1037BD4680BD74210020BC210020AE
:100A500080B483B000AF786039607B681A683B6807
:100A60001B689A4201DA3B6800E07B6818460C3745
:100A7000BD4680BC7047000080B584B000AF00F078
:100A80005DFB0D4BBB600C4BFB600C4B7B60FA6855
:100A90007B689A420CD0FB683B60386800F010F825
:100AA0000346184600F0C9F8FB681833FB60EEE710
:100AB00000BF1037BD4680BDFC220020A4230020CB
:100AC00080B483B000AF78607B68083318460C3779
:100AD000BD4680BC7047000080B582B000AF786032
:100AE0007B68DBB21A4613465B0013449B00054A41
:100AF0001344184600F031F8034618460837BD463F
:100B000080BD00BFBC21002080B582B000AF7860FE
:100B10007B68DBB21A4613465B0013449B00054A10
:100B20001344184600F024F8034618460837BD461B
:100B300080BD00BFC821002098B500AF0020FFF79E
:100B4000CBFF03461C460020FFF7DEFF0346194695
:100B5000204600F0A7FC00BF98BD80B483B000AF72
:100B600078607B689B6818460C37BD4680BC704730
:100B700080B483B000AF78607B689B6818460C3700
:100B8000BD4680BC7047000080B582B000AF72B631
:100B900000BF00F097FFFFF73DFF62B600BF0023E4
:100BA000FB710020FFF798FF034610220849184602
:100BB00000F0C0FD074AFB791946104600F05CF8CA
:100BC000FB7983F00103FB71642000F089FFF1E7FA
:100BD000F02000200423002080B500AF024B18460F
:100BE00000F080FD00BF80BDD822002080B400AF9F
:100BF00000BFBD4680BC704780B483B000AF786052
:100C00007B681B6818460C37BD4680BC704780B5B2
:100C100082B000AF78607B685B68072B05D9786885
:100C2000FFF7EAFF0346043303E07868FFF7E4FFC9
:100C3000034618460837BD4680BD90B585B002AF63
:100C400078607B68197A7B68587A7B681C7B7B6844
:100C50005B7B7A68927B0192009323460246786818
:100C600000F07AFA7B68DB7A1946786800F004F8BD
:100C700000BF0C37BD4690BD80B582B000AF786034
:100C80000B46FB707B68FA78DA737B68DA7B7B68EB
:100C90009B7A9A4214BF01230023DBB2194678687D
:100CA00000F03EFB00BF0837BD4680BD80B582B076
:100CB00000AF7860786800F05AFB03461A467B68FC
:100CC0009B7A9A4214BF01230023DBB218460837EF
:100CD000BD4680BD80B584B000AF3B4683E80300CD
:100CE0003B460CCB07210C4800F07AF8F860FB6813
:100CF000002B0BDBFA6813465B001344DB00064A4B
:100D000013441846FFF7DCFE034600E000231846B4
:100D10001037BD4680BD00BFFC22002080B500AF6B
:100D2000FFF7AAFE00BF80BD80B586B000AFF860B7
:100D3000B9607A603B607B68002B01D104234BE0F3
:100D4000BB6893E80300FFF7C5FF78617B69002B60
:100D500001D1042340E0BB680833BB607B68013BE2
:100D60007B60FB68022B29D0FB68022B33D8FB6821
:100D7000002B03D0FB68012B05D02CE07869FFF72E
:100D80005CFF002328E07B68002B01D1042323E0D3
:100D900007F11202BB6893E8030000F036F803463F
:100DA00083F00103DBB2002B01D0042314E0BB7CF1
:100DB00019467869FFF760FF00230DE07869FFF7B7
:100DC00075FF0346FB74FB7C002239681846FFF769
:100DD000C5FA002300E0012318461837BD4680BD40
:100DE00080B586B002AFF860B960394681E80C0082
:100DF000BA687B6800933B681821F868FFF77CFDB0
:100E0000034618461037BD4680BD80B586B000AF9A
:100E100007F1080383E803007A6007F110031A461C
:100E200007F1080393E80300FFF7F8FB0346FB759F
:100E30003B69002B14BF01230023DAB27B681A70D0
:100E4000FB7D18461837BD4680BD000080B584B0D4
:100E500000AF3B4683E803003B460CCB01210C4826
:100E600000F008F9F860FB68002B0BDBFA6813460A
:100E70005B0013449B00064A13441846FFF76DFEBF
:100E8000034600E0002318461037BD4680BD00BF72
:100E9000BC21002080B584B000AF3B4683E803004E
:100EA0003B460CCB01210C4800F0F9F8F860FB68D8
:100EB000002B0BDBFA6813465B0013449B00064AC9
:100EC00013441846FFF754FE034600E0002318467B
:100ED0001037BD4680BD00BFC821002080B500AFDF
:100EE00000F0D9FAFFF728FE00BF80BD80B58AB0B8
:100EF00000AFF860B9607A603B607B68002B01D17D
:100F00000423B0E0BB6893E80300FFF79FFF78621B
:100F10007B6A002B01D10423A5E0BB680833BB60CA
:100F20007B68013B7B60FB68032B00F29B8001A286
:100F300052F823F0450F0020730F0020B50F00205A
:100F4000091000207B68002B01D100238BE0BB68D7
:100F500093E80300FFF79EFFF861FB69002B01D1C6
:100F6000042380E07B6AF969184600F09BFA0023AD
:100F700079E07B68002B01D1002374E0B868FFF7AB
:100F800037FB03465B083B62394AB9683B6A03C9D1
:100F9000FFF701F9034683F00103DBB2002B01D018
:100FA000042360E07B6A32493A6A184600F0D1FBBC
:100FB000002358E07B68002B01D1002353E007F1A8
:100FC0001802BB6893E8030000F07EF8034683F044
:100FD0000103DBB2002B01D0042344E0BB69B3F56D
:100FE000806F01D904233EE07B6A2149BA69184623
:100FF00000F0D3FB0346BB611D48B96900233A6882
:10100000FFF748F900232EE07B68002B01D1002375
:1010100029E007F11702B968012303C9FFF7BBF8FC
:10102000034683F00103DBB2002B01D004231AE056
:101030000F4BFA7D11464FF48062184600F064FDB4
:101040007B6B9847034683F00103DBB2002B07D08C
:101050007B6A07494FF48062184600F07AFBEFE79D
:10106000002300E0012318462837BD4680BD00BF9D
:10107000EC23002080B586B002AFF860B960394635
:1010800081E80C00BA687B6800933B680C21F86823
:10109000FFF732FC034618461037BD4680BD80B5C9
:1010A00086B002AFF860B960394681E80C00BA68D2
:1010B0007B6800933B680C21F868FFF71DFC034632
:1010C00018461037BD4680BD80B586B000AF07F129
:1010D000080383E803007A6007F110031A4607F15A
:1010E000080393E80300FFF799FA0346FB753B6991
:1010F0001A467B681A60FB7D18461837BD4680BDCE
:1011000080B483B000AF044B5B68C3F308037B601B
:101110007B6800BEFEE700BF00ED00E080B483B056
:1011200000AF78607B685B68DBB203F00703DBB27B
:1011300018460C37BD4680BC7047000080B400AF35
:10114000044B9B69034A43F07C03936100BFBD4697
:1011500080BC70470010024090B585B000AF786049
:10116000084611461A460346FB700B46BB701346F1
:101170007B700023FB730023BB7300237B73FB781E
:10118000032B5FD0FB78032B61D8FB78002B05D0B5
:10119000FB78013BDBB2012B59D824E097F82430CF
:1011A000022B1AD097F82430022B4DD897F8243010
:1011B000002B04D097F82430012B05D044E0FB7BB2
:1011C00043F00103FB730DE0FB7B43F00203FB7371
:1011D0007B7B43F001037B7304E0FB7B43F0020362
:1011E000FB7300BF30E07B78012B03D1FB7B43F026
:1011F0000103FB73FB78022B03D1FB7B43F002035B
:10120000FB7397F82030032B20D897F82030022B5F
:1012100012D297F82030002B04D097F82030012B01
:1012200005D013E0BB7B43F00203BB7309E0BB7B3B
:1012300043F00103BB7304E0BB7B43F00303BB73C8
:1012400000BF03E000BF02E000BF00E000BFFB7B87
:101250009A00BB7B42EA03047B681846FFF75EFFF7
:1012600003469B0004FA03F3BB607B681846FFF754
:10127000CEFC03461C687B681846FFF74FFF034609
:101280009B000F2202FA03F3DB4304EA0302BB686C
:1012900042EA03047B681846FFF7B9FC03461C606A
:1012A000FB78002B0BD17A7B7B685B6802FA03F337
:1012B0001C467B681846FFF79FFC0346DC6000BFB6
:1012C0001437BD4690BD90B585B000AF78607B689F
:1012D0001846FFF723FF03469B00042202FA03F39C
:1012E000FB607B681846FFF792FC03461C687B682E
:1012F0001846FFF713FF03469B000F2202FA03F381
:10130000DB4304EA0302FB6842EA03047B681846F5
:10131000FFF77DFC03461C6000BF1437BD4690BD3F
:1013200090B583B000AF78600B46FB70FB78002B64
:101330000CD07B685B68012202FA03F31C467B68D1
:101340001846FFF759FC03461C610CE07B685B689C
:101350001033012202FA03F31C467B681846FFF79C
:101360004BFC03461C6100BF0C37BD4690BD80B5E9
:1013700082B000AF78607B681846FFF73DFC0346FB
:101380009A687B685B6822FA03F303F00103002B81
:1013900014BF01230023DBB218460837BD4680BDC9
:1013A00080B483B000AF0346FB7197F90730002B80
:1013B0000BDBFB7903F01F02064997F907305B0945
:1013C000012000FA02F241F8232000BF0C37BD468D
:1013D00080BC704700E100E080B483B000AF0346FA
:1013E0003960FB7197F90730002B0ADB3B68DAB2F2
:1013F0000C4997F907301201D2B20B4483F800234D
:101400000AE03B68DAB20849FB7903F00F03043BBA
:101410001201D2B20B441A7600BF0C37BD4680BC15
:10142000704700BF00E100E000ED00E080B483B051
:1014300000AF0346FB7197F9073018460C37BD46DD
:1014400080BC704780B483B000AF78607B681B7845
:1014500003F1804303F5043318460C37BD4680BCC6
:10146000704780B483B000AF78607B681B7A03F16B
:10147000804303F5803318460C37BD4680BC704767
:1014800080B483B000AF78607B681B6818460C3767
:10149000BD4680BC704780B400AF00BFBD4680BC75
:1014A0007047000090B587B000AF786039607B6806
:1014B000DB68002B0AD07B68DB683A689A4205D06B
:1014C0007B68DB6808331846FFF7FDFE7B68DB6846
:1014D000002B0AD07B68DB683A689A4205D07B68AB
:1014E000DB6818331846FFF7EEFE7B68DB68002BDD
:1014F00011D07B68DB689B6A002B0CD07B68DB68B3
:101500009A6A3B689B6A9A4205D07B68DB689B6A53
:101510001846FFF7D8FE7B683A68DA607B680433C8
:101520001846FFF78FFF03461A687968497908461D
:10153000012181400A431A607B681846FFF791FF3A
:1015400003461B687A68927AD24313407A68D27A4B
:1015500011467A68527A01FA02F243EA02047B6881
:101560001846FFF77EFF03461C607B689B791A468E
:10157000344B93FBF2F37B617B68DB681B687A6911
:10158000B2FBF3F33B613B691B09FB60FB681B018A
:101590003A69D31ABB607B68DB6808331846FFF7EB
:1015A0004CFB7B68DB6818331846FFF746FB7B680B
:1015B000DB689B6A002B05D07B68DB689B6A18465A
:1015C000FFF73BFBFB681A01BB6842EA03047B6838
:1015D0001846FFF755FF03469C607B681846FFF7E7
:1015E0004FFF0346DB6843F020047B681846FFF793
:1015F00047FF0346DC607B68DB791846FFF716FF80
:10160000034600211846FFF7E7FE7B68DB791846A2
:10161000FFF70CFF03461846FFF7C2FE7B6818462B
:10162000FFF72EFF0346DB6843F4005444F00C043C
:101630007B681846FFF724FF0346DC6000BF1C37B9
:10164000BD4690BD00127A0080B582B000AF7860D0
:101650007B681846FFF714FF03461B6803F040033E
:10166000002B0CBF01230023DBB2002B00D0EFE7DF
:1016700000BF0837BD4680BD90B583B000AF78602D
:101680000B46FB707B681846FFF7FAFE03461B68A3
:1016900003F08003002B0CBF01230023DBB2002BDF
:1016A00000D0EFE7FC787B681846FFF7E9FE0346B9
:1016B0005C6000BF0C37BD4690BD80B582B000AF06
:1016C000786039607B6810333968184600F05AF941
:1016D0000346002B0CBF01230023DBB2184608375A
:1016E000BD4680BD80B584B000AF78607B68184689
:1016F000FFF7C6FE03461B6803F02803002B14BF48
:1017000001230023DBB2002B10D07B681846FFF7C3
:10171000B7FE03465B68DBB2FB737B68103307F1EF
:101720000F021146184600F01BF9DFE700BF103723
:10173000BD4680BD80B584B000AFF860B9607A6006
:101740007A68B968F86800F004F800BF1037BD4641
:1017500080BD80B584B000AFF860B9607A60F86889
:1017600000F044F87B685A1E7A60002B14BF0123F6
:101770000023DBB2002B09D0BB681B781946F86840
:10178000FFF77AFFBB680133BB60EBE7F86800F056
:1017900044F800BF1037BD4680BD80B586B000AFAD
:1017A000F860B9607A6000237B617B685A1E7A60BA
:1017B000002B14BF01230023DBB2002B11D0BA6829
:1017C0007B6913441946F868FFF777FF034683F0F7
:1017D0000103DBB2002B03D17B6901337B61E4E7BA
:1017E00000BF7B6918461837BD4680BD80B582B002
:1017F00000AF78607B68DB689B6A002B09D07B6850
:10180000DB689B6A01211846FFF736FA0A2000F0D0
:1018100073F900BF0837BD4680BD80B582B000AF08
:1018200078607B68DB689B6A002B0CD07868FFF7D8
:101830000BFF0A2000F060F97B68DB689B6A0021DF
:101840001846FFF719FA00BF0837BD4680BD0000F3
:1018500080B582B000AF174A174BD31A9B103B607C
:1018600000237B6007E0144A7B6852F823309847D6
:101870007B6801337B607A683B689A42F3D3FEF75A
:101880004FFC0E4A0E4BD31A9B103B6000237B602B
:1018900007E00B4A7B6852F8233098477B68013396
:1018A0007B607A683B689A42F3D300BF00BF083779
:1018B000BD4680BD1C0100201C010020200100202D
:1018C0001C01002080B500AF094B0A4A9A60FFF75F
:1018D0008DF9094A094BD31A1A460021074800F02E
:1018E00013F9FFF7B5FFFFF74FF900BF80BD00BF49
:1018F00000ED00E00000002034280020D02300206C
:10190000024682B0EFF3108072B68DF807000949E5
:101910000B780133DBB2012B0B7003D19DF807105C
:10192000054B1970BFF34F8FBFF36F8F104602B096
:10193000704700BF3128002030280020064A137865
:10194000013BDBB2137002461BB9044B187880F3DD
:1019500010881046704700BF312800203028002032
:1019600030B504460D4683B001A8FFF7C9FF2946EC
:10197000204600F019F8044601A8FFF7DFFF2046D3
:1019800003B030BD30B504460D4683B001A8FFF763
:10199000B7FF2946204600F021F8044601A8FFF7CA
:1019A000CDFF204603B030BD034600695A6890421F
:1019B00010D208789A6819688854D3E90112013264
:1019C0008A429A6004BF00229A601A69002001329C
:1019D0001A6170474FF0FF30704700BF026903463D
:1019E00092B1C2680068825C0A705868D3E903212A
:1019F000013201398242C3E9032101D0002070473E
:101A000000221046DA6070474FF0FF30704700BF89
:101A100080B400AF044B1B680133034A136000BF5E
:101A2000BD4680BC704700BF2C28002080B483B026
:101A300000AF03463960FB7197F90730002B0ADBD2
:101A40003B68DAB20C4997F907301201D2B20B4465
:101A500083F800230AE03B68DAB20849FB7903F017
:101A60000F03043B1201D2B20B441A7600BF0C37AD
:101A7000BD4680BC704700BF00E100E000ED00E023
:101A800080B582B000AF78607B68013BB3F1807FA6
:101A900001D301230FE00A4A7B68013B53600F2109
:101AA0004FF0FF30FFF7C2FF054B00229A60044B56
:101AB00007221A60002318460837BD4680BD00BFC4
:101AC00010E000E080B500AF4FF4FA50FFF7D8FF08
:101AD00000BF80BD80B500AFFFF79AFF00BF80BD9B
:101AE00048B110B5441E4FF47A70013C00F004F880
:101AF000631CF8D110BD7047C000431E10B100BF79
:101B0000013BFCD2704700BF03460244934200D120
:101B1000704703F8011BF9E770B504460E4E0A44FE
:101B20008A4201D1002013E014F8013B985D00F0D7
:101B30000300012811F8010B08BF2033355C05F0C4
:101B40000305012D08BF20301B1A02D10028E7D160
:101B500070BD1846FCE700BFD5210020303132337C
:101B6000343536373839616263646566637572721D
:101B70005F73697A65203E3D206D61785F73697A95
:101B80006528290000000000494D504C454D454E48
:101B9000544154494F4E202D204E4F5420494D5012
:101BA0004C454D454E5445440000000045584543C2
:101BB0005554494F4E202D20434F4D4D414E44200A
:101BC0004641494C454400005245534F5552434508
:101BD000202D204E4F2053554348205245534F55FA
:101BE00052434500415247554D454E54202D204209
:101BF000414420415247554D454E540043484543CA
:101C00004B53554D202D20434F4D4D414E442F52A7
:101C10004553504F4E534520434845434B53554D34
:101C2000204641494C55524500000000434F4E4666
:101C3000000000003C6770696F206E616D653E2E8C
:101C400020285265292D636F6E666967757265205D
:101C500070696E00570000003C6770696F206E610C
:101C60006D653E203C302F313E2E20536574206C34
:101C70006F676963616C2070696E2073746174654D
:101C800000000000520000003C6770696F206E6128
:101C90006D653E2E2052656164206C6F67696361DB
:101CA0006C2070696E207374617465003C7561729C
:101CB00074206E616D653E203C636F6E66696720BF
:101CC0006E616D653E2E20436F6E66696775726545
:101CD00020746865207065726970686572616C2037
:101CE0007769746820616E206578697374696E67BE
:101CF00020636F6E66696775726174696F6E00004C
:101D00003C75617274206E616D653E203C6865783B
:101D100020737472696E673E2E205472616E736D0B
:101D2000697420646174612066726F6D20746865E7
:101D300020554152540000003C75617274206E6160
:101D40006D653E203C232062797465733E2E204EE3
:101D50006F6E2D626C6F636B696E67207265636571
:101D600069766520757020746F2060232062797415
:101D70006573602062797465732066726F6D20747C
:101D80006865205258206275666665720000000022
:101D900054455354000000003C75617274206E611C
:101DA0006D653E203C68657820627974653E2E2022
:101DB000436F6E74696E756F75736C7920747261A0
:101DC0006E736D6974207468652068657820627927
:101DD000746520756E74696C2074686520636F6D1E
:101DE0006D616E6420697320696E746572727570BE
:101DF000746564004750494F5265736F757263652F
:101E000000000000554152545265736F757263654E
:101E100000000000082008004552524F523A2000AE
:101E20003A203078000000003A2000003031323390
:101E300034353637383941424344454600000000C6
:101E400068656C7000000000637572725F73697A78
:101E500065203E3D206D61785F73697A65282900B1
:101E6000696E646578203E2073697A6528290000D0
:101E700000000000494D504C454D454E54415449D9
:101E80004F4E202D204E4F5420494D504C454D452E
:101E90004E54454400000000455845435554494FB1
:101EA0004E202D20434F4D4D414E44204641494C3C
:101EB000454400005245534F55524345202D204E76
:101EC0004F2053554348205245534F5552434500E8
:101ED000415247554D454E54202D2042414420410A
:101EE0005247554D454E5400434845434B53554D7D
:101EF000202D20434F4D4D414E442F524553504FBE
:101F00004E534520434845434B53554D2046414988
:101F10004C555245000000004C45445F524544007A
:101F20004C45445F475245454E0000005357315FD2
:101F30004C4544005357325F4C4544005357335F80
:101F40004C4544005357345F4C4544005357365F6B
:101F50004C45440000000000494D504C454D454E55
:101F6000544154494F4E202D204E4F5420494D503E
:101F70004C454D454E5445440000000045584543EE
:101F80005554494F4E202D20434F4D4D414E442036
:101F90004641494C454400005245534F5552434534
:101FA000202D204E4F2053554348205245534F5526
:101FB00052434500415247554D454E54202D204235
:101FC000414420415247554D454E540043484543F6
:101FD0004B53554D202D20434F4D4D414E442F52D4
:101FE0004553504F4E534520434845434B53554D61
:101FF000204641494C555245000000004445425599
:102000004700000000000000494D504C454D454E32
:10201000544154494F4E202D204E4F5420494D508D
:102020004C454D454E54454400000000455845433D
:102030005554494F4E202D20434F4D4D414E442085
:102040004641494C454400005245534F5552434583
:10205000202D204E4F2053554348205245534F5575
:1020600052434500415247554D454E54202D204284
:10207000414420415247554D454E54004348454345
:102080004B53554D202D20434F4D4D414E442F5223
:102090004553504F4E534520434845434B53554DB0
:1020A000204641494C555245000000004C45445FD4
:1020B000524544004C45445F475245454E000000A0
:1020C0005357315F4C4544005357325F4C454400F1
:1020D0005357335F4C4544005357345F4C454400DD
:1020E0005357365F4C454400444542554700000075
:1020F000434C4320636F6E6E65637465642E0A0DF6
:1021000000000000040000002C1C00201F00000044
:10211000341C002001000000541C00202800000096
:10212000581C002001000000841C00202300000037
:10213000881C0020040000002C1C0020520000001D
:10214000AC1C002001000000541C002035000000E1
:10215000001D002001000000841C0020540000002D
:10216000381D002004000000901D00205B000000CE
:10217000981D00200C000000F41D00201D0D002003
:10218000290D0020000000000421002003000000B1
:1021900000000000841B00200C000000041E002032
:1021A000DD0E0020ED0E0020000000003421002094
:1021B0000400000000000000841B00200500000057
:1021C000FC1F0020D822002005000000FC1F00207A
:1021D000A4230020002020202020202020202828A8
:1021E00028282820202020202020202020202020D7
:1021F0002020202020881010101010101010101017
:102200001010101010040404040404040404041046
:1022100010101010101041414141414101010101D4
:10222000010101010101010101010101010101019E
:1022300010101010101042424242424202020202AA
:10224000020202020202020202020202020202026E
:10225000101010102000000000000000000000001E
:10226000000000000000000000000000000000006E
:10227000000000000000000000000000000000005E
:10228000000000000000000000000000000000004E
:10229000000000000000000000000000000000003E
:1022A000000000000000000000000000000000002E
:1022B000000000000000000000000000000000001E
:1022C000000000000000000000000000000000000E
:0822D000000000000000000006
:1022D800004800401C12012704040300000000000D
:1022E800EC27002040000000000000000000000073
:1022F8000000000007000000181F0020001801401F
:1023080000000000010001000001000009000000B9
:10231800201F0020001801400100000001000100FA
:1023280000010000070000002C1F002000180140D9
:102338000800000001000101000100010700000081
:10234800341F0020001801400900000001000100AE
:1023580000010000070000003C1F00200018014099
:102368000A00000001000100000100000700000051
:10237800441F0020001801400B000000010001006C
:1023880000010000070000004C1F00200018014059
:102398000D000000010001000001000000C2010062
:1023A80000000000000C01400A00000002000000CC
:1023B80000000000000C01400B00000000000000BD
:0823C80000000000000000000D
:04000005200000EDEA
:00000001FF
